{
  "_format": "hh-sol-artifact-1",
  "contractName": "BallotContract",
  "sourceName": "contracts/BallotContract.sol",
  "abi": [
    {
      "anonymous": false,
      "inputs": [
        {
          "indexed": false,
          "internalType": "uint256",
          "name": "id",
          "type": "uint256"
        },
        {
          "indexed": false,
          "internalType": "string",
          "name": "name",
          "type": "string"
        }
      ],
      "name": "ElectionCreated",
      "type": "event"
    },
    {
      "anonymous": false,
      "inputs": [
        {
          "indexed": false,
          "internalType": "uint256",
          "name": "electionId",
          "type": "uint256"
        },
        {
          "indexed": false,
          "internalType": "uint256",
          "name": "candidateId",
          "type": "uint256"
        }
      ],
      "name": "VoteCast",
      "type": "event"
    },
    {
      "anonymous": false,
      "inputs": [
        {
          "indexed": false,
          "internalType": "address",
          "name": "voter",
          "type": "address"
        }
      ],
      "name": "VoterRegistered",
      "type": "event"
    },
    {
      "inputs": [
        {
          "internalType": "uint256",
          "name": "_electionId",
          "type": "uint256"
        },
        {
          "internalType": "string",
          "name": "_name",
          "type": "string"
        }
      ],
      "name": "addCandidate",
      "outputs": [],
      "stateMutability": "nonpayable",
      "type": "function"
    },
    {
      "inputs": [
        {
          "internalType": "uint256",
          "name": "_electionId",
          "type": "uint256"
        },
        {
          "internalType": "uint256",
          "name": "_candidateId",
          "type": "uint256"
        }
      ],
      "name": "castVote",
      "outputs": [],
      "stateMutability": "nonpayable",
      "type": "function"
    },
    {
      "inputs": [
        {
          "internalType": "string",
          "name": "_name",
          "type": "string"
        }
      ],
      "name": "createElection",
      "outputs": [],
      "stateMutability": "nonpayable",
      "type": "function"
    },
    {
      "inputs": [
        {
          "internalType": "string",
          "name": "_name",
          "type": "string"
        },
        {
          "internalType": "string[]",
          "name": "_candidates",
          "type": "string[]"
        }
      ],
      "name": "createElection",
      "outputs": [],
      "stateMutability": "nonpayable",
      "type": "function"
    },
    {
      "inputs": [
        {
          "internalType": "uint256",
          "name": "",
          "type": "uint256"
        }
      ],
      "name": "elections",
      "outputs": [
        {
          "internalType": "uint256",
          "name": "id",
          "type": "uint256"
        },
        {
          "internalType": "string",
          "name": "name",
          "type": "string"
        },
        {
          "internalType": "uint256",
          "name": "candidatesCount",
          "type": "uint256"
        },
        {
          "internalType": "bool",
          "name": "isActive",
          "type": "bool"
        },
        {
          "internalType": "uint256",
          "name": "totalVotes",
          "type": "uint256"
        }
      ],
      "stateMutability": "view",
      "type": "function"
    },
    {
      "inputs": [],
      "name": "electionsCount",
      "outputs": [
        {
          "internalType": "uint256",
          "name": "",
          "type": "uint256"
        }
      ],
      "stateMutability": "view",
      "type": "function"
    },
    {
      "inputs": [
        {
          "internalType": "uint256",
          "name": "_electionId",
          "type": "uint256"
        }
      ],
      "name": "getCandidates",
      "outputs": [
        {
          "internalType": "string[]",
          "name": "",
          "type": "string[]"
        }
      ],
      "stateMutability": "view",
      "type": "function"
    },
    {
      "inputs": [
        {
          "internalType": "uint256",
          "name": "_electionId",
          "type": "uint256"
        },
        {
          "internalType": "uint256",
          "name": "_candidateId",
          "type": "uint256"
        }
      ],
      "name": "getVoteCount",
      "outputs": [
        {
          "internalType": "uint256",
          "name": "",
          "type": "uint256"
        }
      ],
      "stateMutability": "view",
      "type": "function"
    },
    {
      "inputs": [
        {
          "internalType": "address",
          "name": "voter",
          "type": "address"
        }
      ],
      "name": "isVoterRegistered",
      "outputs": [
        {
          "internalType": "bool",
          "name": "",
          "type": "bool"
        }
      ],
      "stateMutability": "view",
      "type": "function"
    },
    {
      "inputs": [
        {
          "internalType": "address",
          "name": "voter",
          "type": "address"
        }
      ],
      "name": "registerVoter",
      "outputs": [],
      "stateMutability": "nonpayable",
      "type": "function"
    },
    {
      "inputs": [
        {
          "internalType": "uint256",
          "name": "_electionId",
          "type": "uint256"
        }
      ],
      "name": "tallyResults",
      "outputs": [
        {
          "internalType": "uint256[]",
          "name": "",
          "type": "uint256[]"
        }
      ],
      "stateMutability": "view",
      "type": "function"
    },
    {
      "inputs": [
        {
          "internalType": "uint256",
          "name": "_electionId",
          "type": "uint256"
        },
        {
          "internalType": "uint256",
          "name": "_candidateId",
          "type": "uint256"
        }
      ],
      "name": "vote",
      "outputs": [],
      "stateMutability": "nonpayable",
      "type": "function"
    }
  ],
  "bytecode": "0x608060405234801561001057600080fd5b50611745806100206000396000f3fe608060405234801561001057600080fd5b50600436106100b45760003560e01c80635e6fef01116100715780635e6fef011461017557806393ec604f146101a95780639a74c695146101d9578063b384abef146101f7578063de2e19a014610213578063eb2119db14610243576100b4565b806315cf4a5f146100b95780631750a3d0146100d55780632c0a3f89146100f1578063349813b21461010d57806338db6dd3146101295780633e39a7a514610145575b600080fd5b6100d360048036038101906100ce9190610e63565b610273565b005b6100ef60048036038101906100ea9190610f39565b610344565b005b61010b60048036038101906101069190610f8d565b610460565b005b61012760048036038101906101229190610ea4565b61046e565b005b610143600480360381019061013e9190610e3a565b610600565b005b61015f600480360381019061015a9190610f10565b61071f565b60405161016c9190611251565b60405180910390f35b61018f600480360381019061018a9190610f10565b6108c5565b6040516101a095949392919061135b565b60405180910390f35b6101c360048036038101906101be9190610f10565b610990565b6040516101d09190611273565b60405180910390f35b6101e1610aaa565b6040516101ee9190611310565b60405180910390f35b610211600480360381019061020c9190610f8d565b610ab0565b005b61022d60048036038101906102289190610f8d565b610bf4565b60405161023a9190611310565b60405180910390f35b61025d60048036038101906102589190610e3a565b610c28565b60405161026a9190611295565b60405180910390f35b60016000815480929190610286906115fa565b919050555060008060006001805461029e919061150a565b81526020019081526020016000209050600180546102bc919061150a565b8160000181905550818160010190805190602001906102dc929190610c7e565b5060018160040160006101000a81548160ff0219169083151502179055507f52be7c4e77b4de76b7607d621492061fe13b58597e72dfb5e51ab8f6187ed14160018054610329919061150a565b8360405161033892919061132b565b60405180910390a15050565b60008083815260200190815260200160002060040160009054906101000a900460ff166103a6576040517f08c379a000000000000000000000000000000000000000000000000000000000815260040161039d906112d0565b60405180910390fd5b600080600084815260200190815260200160002090508060030160008154809291906103d1906115fa565b91905055506040518060600160405280600183600301546103f2919061150a565b8152602001838152602001600081525081600201600060018460030154610419919061150a565b815260200190815260200160002060008201518160000155602082015181600101908051906020019061044d929190610c7e565b5060408201518160020155905050505050565b61046a8282610ab0565b5050565b6000600154905060008060008381526020019081526020016000209050818160000181905550838160010190805190602001906104ac929190610c7e565b5060018160040160006101000a81548160ff02191690831515021790555060005b83518110156105a8578160030160008154809291906104eb906115fa565b9190505550604051806060016040528082815260200185838151811061053a577f4e487b7100000000000000000000000000000000000000000000000000000000600052603260045260246000fd5b602002602001015181526020016000815250826002016000838152602001908152602001600020600082015181600001556020820151816001019080519060200190610587929190610c7e565b506040820151816002015590505080806105a0906115fa565b9150506104cd565b50600160008154809291906105bc906115fa565b91905055507f52be7c4e77b4de76b7607d621492061fe13b58597e72dfb5e51ab8f6187ed14182856040516105f292919061132b565b60405180910390a150505050565b600260008273ffffffffffffffffffffffffffffffffffffffff1673ffffffffffffffffffffffffffffffffffffffff16815260200190815260200160002060009054906101000a900460ff161561068d576040517f08c379a0000000000000000000000000000000000000000000000000000000008152600401610684906112b0565b60405180910390fd5b6001600260008373ffffffffffffffffffffffffffffffffffffffff1673ffffffffffffffffffffffffffffffffffffffff16815260200190815260200160002060006101000a81548160ff0219169083151502179055507fb6be2187d059cc2a55fe29e0e503b566e1e0f8c8780096e185429350acffd3dd816040516107149190611236565b60405180910390a150565b6060600080600084815260200190815260200160002090506000816003015467ffffffffffffffff81111561077d577f4e487b7100000000000000000000000000000000000000000000000000000000600052604160045260246000fd5b6040519080825280602002602001820160405280156107b057816020015b606081526020019060019003908161079b5790505b50905060005b82600301548110156108ba5782600201600082815260200190815260200160002060010180546107e5906115c8565b80601f0160208091040260200160405190810160405280929190818152602001828054610811906115c8565b801561085e5780601f106108335761010080835404028352916020019161085e565b820191906000526020600020905b81548152906001019060200180831161084157829003601f168201915b505050505082828151811061089c577f4e487b7100000000000000000000000000000000000000000000000000000000600052603260045260246000fd5b602002602001018190525080806108b2906115fa565b9150506107b6565b508092505050919050565b60006020528060005260406000206000915090508060000154908060010180546108ee906115c8565b80601f016020809104026020016040519081016040528092919081815260200182805461091a906115c8565b80156109675780601f1061093c57610100808354040283529160200191610967565b820191906000526020600020905b81548152906001019060200180831161094a57829003601f168201915b5050505050908060030154908060040160009054906101000a900460ff16908060050154905085565b6060600080600084815260200190815260200160002090506000816003015467ffffffffffffffff8111156109ee577f4e487b7100000000000000000000000000000000000000000000000000000000600052604160045260246000fd5b604051908082528060200260200182016040528015610a1c5781602001602082028036833780820191505090505b50905060005b8260030154811015610a9f5782600201600082815260200190815260200160002060020154828281518110610a80577f4e487b7100000000000000000000000000000000000000000000000000000000600052603260045260246000fd5b6020026020010181815250508080610a97906115fa565b915050610a22565b508092505050919050565b60015481565b60008083815260200190815260200160002060040160009054906101000a900460ff16610b12576040517f08c379a0000000000000000000000000000000000000000000000000000000008152600401610b09906112d0565b60405180910390fd5b6000806000848152602001908152602001600020905080600301548210610b6e576040517f08c379a0000000000000000000000000000000000000000000000000000000008152600401610b65906112f0565b60405180910390fd5b8060020160008381526020019081526020016000206002016000815480929190610b97906115fa565b9190505550806005016000815480929190610bb1906115fa565b91905055507fc31875ef3ed5138b71a0c1da7e494bc4d2ba4f567084ea481ec9c45f3a93948b8383604051610be79291906113b5565b60405180910390a1505050565b6000806000848152602001908152602001600020600201600083815260200190815260200160002060020154905092915050565b6000600260008373ffffffffffffffffffffffffffffffffffffffff1673ffffffffffffffffffffffffffffffffffffffff16815260200190815260200160002060009054906101000a900460ff169050919050565b828054610c8a906115c8565b90600052602060002090601f016020900481019282610cac5760008555610cf3565b82601f10610cc557805160ff1916838001178555610cf3565b82800160010185558215610cf3579182015b82811115610cf2578251825591602001919060010190610cd7565b5b509050610d009190610d04565b5090565b5b80821115610d1d576000816000905550600101610d05565b5090565b6000610d34610d2f8461140f565b6113de565b9050808382526020820190508260005b85811015610d745781358501610d5a8882610dfb565b845260208401935060208301925050600181019050610d44565b5050509392505050565b6000610d91610d8c8461143b565b6113de565b905082815260208101848484011115610da957600080fd5b610db4848285611586565b509392505050565b600081359050610dcb816116e1565b92915050565b600082601f830112610de257600080fd5b8135610df2848260208601610d21565b91505092915050565b600082601f830112610e0c57600080fd5b8135610e1c848260208601610d7e565b91505092915050565b600081359050610e34816116f8565b92915050565b600060208284031215610e4c57600080fd5b6000610e5a84828501610dbc565b91505092915050565b600060208284031215610e7557600080fd5b600082013567ffffffffffffffff811115610e8f57600080fd5b610e9b84828501610dfb565b91505092915050565b60008060408385031215610eb757600080fd5b600083013567ffffffffffffffff811115610ed157600080fd5b610edd85828601610dfb565b925050602083013567ffffffffffffffff811115610efa57600080fd5b610f0685828601610dd1565b9150509250929050565b600060208284031215610f2257600080fd5b6000610f3084828501610e25565b91505092915050565b60008060408385031215610f4c57600080fd5b6000610f5a85828601610e25565b925050602083013567ffffffffffffffff811115610f7757600080fd5b610f8385828601610dfb565b9150509250929050565b60008060408385031215610fa057600080fd5b6000610fae85828601610e25565b9250506020610fbf85828601610e25565b9150509250929050565b6000610fd583836110e6565b905092915050565b6000610fe98383611218565b60208301905092915050565b610ffe8161153e565b82525050565b600061100f8261148b565b61101981856114c6565b93508360208202850161102b8561146b565b8060005b8581101561106757848403895281516110488582610fc9565b9450611053836114ac565b925060208a0199505060018101905061102f565b50829750879550505050505092915050565b600061108482611496565b61108e81856114d7565b93506110998361147b565b8060005b838110156110ca5781516110b18882610fdd565b97506110bc836114b9565b92505060018101905061109d565b5085935050505092915050565b6110e081611550565b82525050565b60006110f1826114a1565b6110fb81856114e8565b935061110b818560208601611595565b611114816116d0565b840191505092915050565b600061112a826114a1565b61113481856114f9565b9350611144818560208601611595565b61114d816116d0565b840191505092915050565b6000611165601b836114f9565b91507f566f74657220697320616c7265616479207265676973746572656400000000006000830152602082019050919050565b60006111a56016836114f9565b91507f456c656374696f6e206973206e6f7420616374697665000000000000000000006000830152602082019050919050565b60006111e56014836114f9565b91507f496e76616c69642063616e6469646174652049440000000000000000000000006000830152602082019050919050565b6112218161157c565b82525050565b6112308161157c565b82525050565b600060208201905061124b6000830184610ff5565b92915050565b6000602082019050818103600083015261126b8184611004565b905092915050565b6000602082019050818103600083015261128d8184611079565b905092915050565b60006020820190506112aa60008301846110d7565b92915050565b600060208201905081810360008301526112c981611158565b9050919050565b600060208201905081810360008301526112e981611198565b9050919050565b60006020820190508181036000830152611309816111d8565b9050919050565b60006020820190506113256000830184611227565b92915050565b60006040820190506113406000830185611227565b8181036020830152611352818461111f565b90509392505050565b600060a0820190506113706000830188611227565b8181036020830152611382818761111f565b90506113916040830186611227565b61139e60608301856110d7565b6113ab6080830184611227565b9695505050505050565b60006040820190506113ca6000830185611227565b6113d76020830184611227565b9392505050565b6000604051905081810181811067ffffffffffffffff82111715611405576114046116a1565b5b8060405250919050565b600067ffffffffffffffff82111561142a576114296116a1565b5b602082029050602081019050919050565b600067ffffffffffffffff821115611456576114556116a1565b5b601f19601f8301169050602081019050919050565b6000819050602082019050919050565b6000819050602082019050919050565b600081519050919050565b600081519050919050565b600081519050919050565b6000602082019050919050565b6000602082019050919050565b600082825260208201905092915050565b600082825260208201905092915050565b600082825260208201905092915050565b600082825260208201905092915050565b60006115158261157c565b91506115208361157c565b92508282101561153357611532611643565b5b828203905092915050565b60006115498261155c565b9050919050565b60008115159050919050565b600073ffffffffffffffffffffffffffffffffffffffff82169050919050565b6000819050919050565b82818337600083830152505050565b60005b838110156115b3578082015181840152602081019050611598565b838111156115c2576000848401525b50505050565b600060028204905060018216806115e057607f821691505b602082108114156115f4576115f3611672565b5b50919050565b60006116058261157c565b91507fffffffffffffffffffffffffffffffffffffffffffffffffffffffffffffffff82141561163857611637611643565b5b600182019050919050565b7f4e487b7100000000000000000000000000000000000000000000000000000000600052601160045260246000fd5b7f4e487b7100000000000000000000000000000000000000000000000000000000600052602260045260246000fd5b7f4e487b7100000000000000000000000000000000000000000000000000000000600052604160045260246000fd5b6000601f19601f8301169050919050565b6116ea8161153e565b81146116f557600080fd5b50565b6117018161157c565b811461170c57600080fd5b5056fea264697066735822122030f032d3b1dfbc0c7f743bcc2cb20bc21b9fb2dea32a889a95f5c67c8573652464736f6c63430008000033",
  "linkReferences": {},
  "deployedLinkReferences": {}
}